:020000040800F2
:1000000000500020B9020008090300080903000895
:1000100009030008090300080903000800000000A4
:1000200000000000000000000000000009030008BC
:100030000903000800000000090300080903000884
:100040000903000809030008090300080903000860
:100050000903000809030008090300080903000850
:100060000903000809030008090300080903000840
:100070000903000809030008090300080903000830
:100080000903000809030008090300080903000820
:100090000903000809030008090300080903000810
:1000A0000903000809030008090300080903000800
:1000B00009030008090300080903000809030008F0
:1000C00009030008090300080903000809030008E0
:1000D00009030008090300080903000809030008D0
:1000E00009030008090300080000000009030008D4
:1000F00009030008090300080903000809030008B0
:10010000090300080903000809030008090300089F
:10011000090300080903000809030008090300088F
:10012000090300080903000809030008090300087F
:1001300010B5054C237833B9044B13B10448AFF321
:1001400000800123237010BD00000020000000008B
:100150005403000808B5034B1BB103490348AFF330
:10016000008008BD000000000400002054030008C7
:1001700080B485B000AF0346FB71FB79322202FBED
:1001800003F3094A82FB03121A449211DB17D31AB4
:100190009BB23233FB81054AFB89136000BF1437E1
:1001A000BD4680BC704700BF898888883400004005
:1001B00080B483B000AF786000BF7B685A1E7A605D
:1001C000002BFAD100BF00BF0C37BD4680BC704782
:1001D00080B500AF2E4B1B682D4A43F0040313601B
:1001E0002C4B1B682B4A43F0010313602A4B1B68FE
:1001F000294A23F00F031360274B1B68264A43F05C
:100200000B031360254BC7221A60254B40F21F32A7
:100210001A60244B4B221A60234B1B68224A23F09E
:1002200070031360204B1B681F4A43F06803136080
:100230001E4B1B681D4A43F0010313604FF08043BF
:100240001B684FF0804243F080031360184B1B681B
:10025000174A43F0010313604FF080431B684FF0CF
:10026000804243F0010313601248FFF7A1FF002012
:10027000FFF77EFF0F48FFF79BFF7820FFF778FF1F
:100280000C48FFF795FF3220FFF772FF00BFEBE746
:10029000181002401C1002400008014028000040D5
:1002A0002C000040340000401800004020000040B6
:1002B00014000040405489000D488546AFF300808B
:1002C0000C480D490D4A002302E0D458C4500433B1
:1002D000C4188C42F9D30A4A0A4C002301E0136087
:1002E0000432A242FBD300F011F8FFF771FFFEE7E2
:1002F00000500020000000200000002074030008CF
:10030000000000201C000020FEE7000070B5002661
:100310000C4D0D4C641BA410A64209D100F01AF834
:1003200000260A4D0A4C641BA410A64205D170BDDC
:1003300055F8043B98470136EEE755F8043B9847DB
:100340000136F2E76C0300086C0300086C03000838
:1003500070030008F8B500BFF8BC08BC9E467047A3
:0C036000F8B500BFF8BC08BC9E46704712
:04036C00550100082F
:04037000310100084F
:04000005080002B934
:00000001FF
