:020000040800F2
:10000000005000207D040008CD040008CD04000845
:10001000CD040008CD040008CD0400080000000055
:10002000000000000000000000000000CD040008F7
:10003000CD04000800000000CD040008CD04000835
:10004000CD040008CD040008CD040008CD0400084C
:10005000CD040008CD040008CD040008CD0400083C
:10006000CD040008CD040008CD040008CD0400082C
:10007000CD040008CD040008CD040008CD0400081C
:10008000CD040008CD040008CD040008CD0400080C
:10009000CD040008CD040008CD040008CD040008FC
:1000A000CD040008CD040008CD040008CD040008EC
:1000B000CD040008CD040008CD040008CD040008DC
:1000C000CD040008CD040008CD040008CD040008CC
:1000D000CD040008CD040008CD040008CD040008BC
:1000E000CD040008CD04000800000000CD04000885
:1000F000CD040008CD040008CD040008CD0400089C
:10010000CD040008CD040008CD040008CD0400088B
:10011000CD040008CD040008CD040008CD0400087B
:10012000CD040008CD040008CD040008CD0400086B
:1001300010B5054C237833B9044B13B10448AFF321
:1001400000800123237010BD00000020000000008B
:100150001805000808B5034B1BB103490348AFF36A
:10016000008008BD00000000040000201805000801
:1001700080B483B000AF786000BF7B685A1E7A609D
:10018000002BFAD100BF00BF0C37BD4680BC7047C2
:1001900080B400AF254B1B68244A43F0040313606E
:1001A000234B1B68224A43F001031360204B1B685A
:1001B0001F4A43F0020313601C4B1B681B4A43F0A9
:1001C000010313601B4B1B681A4A1B0C1B041360B2
:1001D000184B1B68174A43F00B031360154B1B6841
:1001E000144A23F070631360124B1B68114A43F0EA
:1001F000306313600F4B1B680E4A43F48073136027
:100200000C4B1B680B4A43F4805313600A4B1B686A
:10021000094A23F440731360074B1B68064A23F412
:100220004063136000BFBD4680BC70471810024099
:100230001C100240000801400400014080B400AFDF
:100240001A4BC7221A601A4B40F21F321A60194B20
:100250004B221A60184B1B68174A23F07003136077
:10026000154B1B68144A43F068031360134B1B685B
:10027000124A43F0010313604FF080431B684FF0B4
:10028000804243F0800313600D4B1B680C4A43F01F
:10029000010313604FF080431B684FF0804243F02E
:1002A0000103136000BFBD4680BC704728000040BA
:1002B0002C000040340000401800004020000040A6
:1002C0001400004080B400AF194B07221A60194B8C
:1002D00040F2E7321A60184B4FF4FA721A60174B6B
:1002E0001B68164A23F070031360144B1B68134AF3
:1002F00043F068031360124B1B68114A43F001037B
:100300001360104B1B680F4A43F0800313600E4BC1
:100310001B680D4A43F0010313600A4B1B68094A2E
:1003200043F00103136000BFBD4680BC704700BFAF
:10033000280400402C04004034040040180400400D
:1003400020040040000400401404004080B400AFCA
:10035000074B1B68064A43F004031360044B1B68F9
:10036000034A23F00803136000BFBD4680BC7047FA
:100370000C08014080B400AF074B1B68064A23F00D
:1003800004031360044B1B68034A43F00803136023
:1003900000BFBD4680BC70470C08014080B400AF70
:1003A000044B1B68034A23F00C03136000BFBD46D7
:1003B00080BC70470C08014080B485B000AF786005
:1003C0007A6813469B0013445B00FB60034AFB689A
:1003D000136000BF1437BD4680BC70473404004032
:1003E00080B582B000AF0346FB71FB79012B02D1CF
:1003F000FFF7ACFF07E0FB79002B02D1FFF7BAFF54
:1004000001E0FFF7CBFF00BF0837BD4680BD00000D
:1004100080B500AFFFF7BCFEFFF710FFFFF752FFFC
:100420001548FFF7A5FE0120FFF7DAFF1248FFF796
:100430009FFE0020FFF7D4FF0F48FFF799FE022030
:10044000FFF7CEFF0C48FFF793FE2820FFF7B4FF1D
:100450000120FFF7C5FF0848FFF78AFE5520FFF788
:10046000ABFF0548FFF784FE2820FFF7A5FF0248F1
:10047000FFF77EFE00BFD3E7405489000D48854654
:10048000AFF300800C480D490D4A002302E0D45818
:10049000C4500433C4188C42F9D30A4A0A4C0023CE
:1004A00001E013600432A242FBD300F011F8FFF721
:1004B000AFFFFEE7005000200000002000000020F9
:1004C00038050008000000201C000020FEE70000A6
:1004D00070B500260C4D0D4C641BA410A64209D12A
:1004E00000F01AF800260A4D0A4C641BA410A6421C
:1004F00005D170BD55F8043B98470136EEE755F835
:10050000043B98470136F2E7300500083005000843
:100510003005000834050008F8B500BFF8BC08BC79
:100520009E467047F8B500BFF8BC08BC9E467047B1
:040530005501000869
:040534003101000889
:040000050800047D6E
:00000001FF
